{
  "contractName": "Sandbox",
  "abi": [
    {
      "inputs": [],
      "name": "code",
      "outputs": [
        {
          "internalType": "uint256",
          "name": "",
          "type": "uint256"
        }
      ],
      "stateMutability": "view",
      "type": "function"
    },
    {
      "inputs": [],
      "name": "randomNb",
      "outputs": [
        {
          "internalType": "uint256",
          "name": "",
          "type": "uint256"
        }
      ],
      "stateMutability": "nonpayable",
      "type": "function"
    },
    {
      "inputs": [],
      "name": "randCode",
      "outputs": [
        {
          "internalType": "uint256",
          "name": "",
          "type": "uint256"
        }
      ],
      "stateMutability": "nonpayable",
      "type": "function"
    }
  ],
  "bytecode": "0x608060405234801561001057600080fd5b50610336806100206000396000f3fe608060405234801561001057600080fd5b50600436106100415760003560e01c806324c12bf614610046578063b5381a9014610064578063eb42f09514610082575b600080fd5b61004e6100a0565b60405161005b9190610128565b60405180910390f35b61006c6100a6565b6040516100799190610128565b60405180910390f35b61008a6100e9565b6040516100979190610128565b60405180910390f35b60005481565b6000620dbb9f4244336040516020016100c1939291906101de565b6040516020818303038152906040528051906020012060001c6100e4919061024a565b905090565b60006100f36100a6565b620186a061010191906102aa565b600081905550600054905090565b6000819050919050565b6101228161010f565b82525050565b600060208201905061013d6000830184610119565b92915050565b6000819050919050565b61015e6101598261010f565b610143565b82525050565b600073ffffffffffffffffffffffffffffffffffffffff82169050919050565b600061018f82610164565b9050919050565b60008160601b9050919050565b60006101ae82610196565b9050919050565b60006101c0826101a3565b9050919050565b6101d86101d382610184565b6101b5565b82525050565b60006101ea828661014d565b6020820191506101fa828561014d565b60208201915061020a82846101c7565b601482019150819050949350505050565b7f4e487b7100000000000000000000000000000000000000000000000000000000600052601260045260246000fd5b60006102558261010f565b91506102608361010f565b9250826102705761026f61021b565b5b828206905092915050565b7f4e487b7100000000000000000000000000000000000000000000000000000000600052601160045260246000fd5b60006102b58261010f565b91506102c08361010f565b9250827fffffffffffffffffffffffffffffffffffffffffffffffffffffffffffffffff038211156102f5576102f461027b565b5b82820190509291505056fea26469706673582212200fcf1d178bac914e3e31ec4be074b90e1757889623d4af9ec7cb184ab39cf66564736f6c634300080f0033",
  "immutableReferences": {},
  "source": "pragma solidity ^0.8.0;\n\ncontract Sandbox {\n\n    uint public code;\n\n    function randomNb () public returns (uint) {\n        return uint(keccak256(abi.encodePacked(block.timestamp, block.difficulty, msg.sender))) % 899999;\n    }\n\n    function randCode () public returns (uint) {\n        code = 100000 + randomNb();\n        return code;\n    }\n \n}",
  "sourcePath": "/home/mmarz/.developer/ethcc2022/contracts/codeGenerator.sol",
  "compiler": {
    "name": "solc",
    "version": "0.8.15+commit.e14f2714.Emscripten.clang"
  },
  "schemaVersion": "3.4.8",
  "updatedAt": "2022-07-24T07:10:14.360Z",
  "devdoc": {
    "kind": "dev",
    "methods": {},
    "version": 1
  },
  "userdoc": {
    "kind": "user",
    "methods": {},
    "version": 1
  }
}