{
  "contractName": "TimelockCook",
  "abi": [
    {
      "inputs": [
        {
          "internalType": "address payable",
          "name": "_owner",
          "type": "address"
        }
      ],
      "stateMutability": "nonpayable",
      "type": "constructor"
    },
    {
      "inputs": [],
      "name": "duration",
      "outputs": [
        {
          "internalType": "uint256",
          "name": "",
          "type": "uint256"
        }
      ],
      "stateMutability": "view",
      "type": "function"
    },
    {
      "inputs": [],
      "name": "end",
      "outputs": [
        {
          "internalType": "uint256",
          "name": "",
          "type": "uint256"
        }
      ],
      "stateMutability": "view",
      "type": "function"
    },
    {
      "inputs": [],
      "name": "owner",
      "outputs": [
        {
          "internalType": "address payable",
          "name": "",
          "type": "address"
        }
      ],
      "stateMutability": "view",
      "type": "function"
    },
    {
      "stateMutability": "payable",
      "type": "receive"
    },
    {
      "inputs": [
        {
          "internalType": "address",
          "name": "token",
          "type": "address"
        },
        {
          "internalType": "uint256",
          "name": "amount",
          "type": "uint256"
        }
      ],
      "name": "deposit",
      "outputs": [],
      "stateMutability": "nonpayable",
      "type": "function"
    },
    {
      "inputs": [
        {
          "internalType": "address",
          "name": "token",
          "type": "address"
        },
        {
          "internalType": "uint256",
          "name": "amount",
          "type": "uint256"
        }
      ],
      "name": "withdraw",
      "outputs": [],
      "stateMutability": "nonpayable",
      "type": "function"
    }
  ],
  "bytecode": "0x60c060405234801561001057600080fd5b506040516109cf3803806109cf833981810160405281019061003291906100e5565b62093a8042610041919061014b565b608081815250508073ffffffffffffffffffffffffffffffffffffffff1660a08173ffffffffffffffffffffffffffffffffffffffff1681525050506101a1565b600080fd5b600073ffffffffffffffffffffffffffffffffffffffff82169050919050565b60006100b282610087565b9050919050565b6100c2816100a7565b81146100cd57600080fd5b50565b6000815190506100df816100b9565b92915050565b6000602082840312156100fb576100fa610082565b5b6000610109848285016100d0565b91505092915050565b6000819050919050565b7f4e487b7100000000000000000000000000000000000000000000000000000000600052601160045260246000fd5b600061015682610112565b915061016183610112565b9250827fffffffffffffffffffffffffffffffffffffffffffffffffffffffffffffffff038211156101965761019561011c565b5b828201905092915050565b60805160a0516107ed6101e2600039600081816101bb015281816102030152818161032801526103b00152600081816101df015261029101526107ed6000f3fe60806040526004361061004e5760003560e01c80630fb5a6b41461005a57806347e7ef24146100855780638da5cb5b146100ae578063efbe1c1c146100d9578063f3fef3a31461010457610055565b3661005557005b600080fd5b34801561006657600080fd5b5061006f61012d565b60405161007c919061044f565b60405180910390f35b34801561009157600080fd5b506100ac60048036038101906100a791906104f9565b610134565b005b3480156100ba57600080fd5b506100c36101b9565b6040516100d0919061055a565b60405180910390f35b3480156100e557600080fd5b506100ee6101dd565b6040516100fb919061044f565b60405180910390f35b34801561011057600080fd5b5061012b600480360381019061012691906104f9565b610201565b005b62093a8081565b8173ffffffffffffffffffffffffffffffffffffffff166323b872dd3330846040518463ffffffff1660e01b815260040161017193929190610584565b6020604051808303816000875af1158015610190573d6000803e3d6000fd5b505050506040513d601f19601f820116820180604052508101906101b491906105f3565b505050565b7f000000000000000000000000000000000000000000000000000000000000000081565b7f000000000000000000000000000000000000000000000000000000000000000081565b7f000000000000000000000000000000000000000000000000000000000000000073ffffffffffffffffffffffffffffffffffffffff163373ffffffffffffffffffffffffffffffffffffffff161461028f576040517f08c379a00000000000000000000000000000000000000000000000000000000081526004016102869061067d565b60405180910390fd5b7f00000000000000000000000000000000000000000000000000000000000000004210156102f2576040517f08c379a00000000000000000000000000000000000000000000000000000000081526004016102e99061070f565b60405180910390fd5b600073ffffffffffffffffffffffffffffffffffffffff168273ffffffffffffffffffffffffffffffffffffffff1603610392577f000000000000000000000000000000000000000000000000000000000000000073ffffffffffffffffffffffffffffffffffffffff166108fc829081150290604051600060405180830381858888f1935050505015801561038c573d6000803e3d6000fd5b50610432565b8173ffffffffffffffffffffffffffffffffffffffff1663a9059cbb7f0000000000000000000000000000000000000000000000000000000000000000836040518363ffffffff1660e01b81526004016103ed92919061078e565b6020604051808303816000875af115801561040c573d6000803e3d6000fd5b505050506040513d601f19601f8201168201806040525081019061043091906105f3565b505b5050565b6000819050919050565b61044981610436565b82525050565b60006020820190506104646000830184610440565b92915050565b600080fd5b600073ffffffffffffffffffffffffffffffffffffffff82169050919050565b600061049a8261046f565b9050919050565b6104aa8161048f565b81146104b557600080fd5b50565b6000813590506104c7816104a1565b92915050565b6104d681610436565b81146104e157600080fd5b50565b6000813590506104f3816104cd565b92915050565b600080604083850312156105105761050f61046a565b5b600061051e858286016104b8565b925050602061052f858286016104e4565b9150509250929050565b60006105448261046f565b9050919050565b61055481610539565b82525050565b600060208201905061056f600083018461054b565b92915050565b61057e8161048f565b82525050565b60006060820190506105996000830186610575565b6105a66020830185610575565b6105b36040830184610440565b949350505050565b60008115159050919050565b6105d0816105bb565b81146105db57600080fd5b50565b6000815190506105ed816105c7565b92915050565b6000602082840312156106095761060861046a565b5b6000610617848285016105de565b91505092915050565b600082825260208201905092915050565b7f6f6e6c79206f776e657200000000000000000000000000000000000000000000600082015250565b6000610667600a83610620565b915061067282610631565b602082019050919050565b600060208201905081810360008301526106968161065a565b9050919050565b7f596f7572206c6f636b696e672d74696d65206973206e6f74206f76657220796560008201527f7400000000000000000000000000000000000000000000000000000000000000602082015250565b60006106f9602183610620565b91506107048261069d565b604082019050919050565b60006020820190508181036000830152610728816106ec565b9050919050565b6000819050919050565b600061075461074f61074a8461046f565b61072f565b61046f565b9050919050565b600061076682610739565b9050919050565b60006107788261075b565b9050919050565b6107888161076d565b82525050565b60006040820190506107a3600083018561077f565b6107b06020830184610440565b939250505056fea26469706673582212200331faa3a99b1c2b1e13a07063fb52772cbc05bc8601a14d82d1cf028a9c29cc64736f6c634300080f0033",
  "immutableReferences": {
    "85": [
      {
        "length": 32,
        "start": 479
      },
      {
        "length": 32,
        "start": 657
      }
    ],
    "87": [
      {
        "length": 32,
        "start": 443
      },
      {
        "length": 32,
        "start": 515
      },
      {
        "length": 32,
        "start": 808
      },
      {
        "length": 32,
        "start": 944
      }
    ]
  },
  "source": "// example timelock contract \npragma solidity ^0.8.4;\n\nimport '@openzeppelin/contracts/token/ERC20/IERC20.sol';\n\n// set the variables: duration of the time lock and the end point \ncontract TimelockCook {\n  uint public constant duration = 7 days;\n  uint public immutable end;\n  address payable public immutable owner;\n\n  // set the timelock, current point of time + the duration\n  constructor(address payable _owner) {\n    end = block.timestamp + duration;\n    owner = _owner; \n  }\n\n // accept incoming ERC20 token\n  function deposit(address token, uint amount) external {\n    IERC20(token).transferFrom(msg.sender, address(this), amount);\n  }\n\n  receive() external payable {}\n\n  // allow the owner (and only the owner) to withdraw the locked amount, assuming the time is over, otherwise error-message \n  function withdraw(address token, uint amount) external {\n    require(msg.sender == owner, 'only owner');\n    require(block.timestamp >= end, 'Your locking-time is not over yet');\n    if(token == address(0)) { \n      owner.transfer(amount);\n    } else {\n      IERC20(token).transfer(owner, amount);\n    }\n  }\n}\n\n\n //   modifier timerOver {\n    //    require(now<=end), \"Your time has ended\");\n    //    _;\n    //}\n    // give the time left in seconds\n    //function getTimeLeft () public timerOver view returns(uint){\n    //   return_end-now\n    //}\n\n ",
  "sourcePath": "/home/mmarz/.developer/ethcc2022/contracts/timelock.sol",
  "compiler": {
    "name": "solc",
    "version": "0.8.15+commit.e14f2714.Emscripten.clang"
  },
  "schemaVersion": "3.4.8",
  "updatedAt": "2022-07-23T19:43:54.172Z",
  "devdoc": {
    "kind": "dev",
    "methods": {},
    "version": 1
  },
  "userdoc": {
    "kind": "user",
    "methods": {},
    "version": 1
  }
}